:020000040800F2
:10000000600F002001010008951E000899120008E9
:10001000911E0008CB0A0008714000080000000093
:100020000000000000000000000000008D2E00080D
:10003000B90C000800000000352D0008213200082E
:100040001B0100081B0100081B0100081B01000820
:100050001B0100081B0100081B0100081B01000810
:100060001B0100081B0100081B0100081B01000800
:100070001B0100081B0100081B0100081B010008F0
:100080001B0100081B0100081B0100081B010008E0
:100090001B0100081B0100081B0100081B010008D0
:1000A0001B010008993200081B0100081B01000811
:1000B0001B0100081B0100081B0100081B010008B0
:1000C0001B0100081B0100081B0100081B010008A0
:1000D0001B010008293D00081B010008B13D000874
:1000E0001B0100081B0100081B010008DFF80CD0F1
:1000F00000F082FC0048004741710008600F0020BA
:100100000648804706480047FEE7FEE7FEE7FEE7B1
:10011000FEE7FEE7FEE7FEE7FEE7FEE7393200080E
:10012000ED000008F0B480EA0102D40F4200B2EB07
:10013000410F02D20246084611464A0042D0C30D82
:10014000DDB2C1F3C752AD1A202D35DAC1F3160165
:1001500041F4000204B15242C5F1200602FA06F150
:100160002A411044B3EBD05F23D0C4B1012DA0EBE2
:10017000C35009DCF0BC4FF0004202EAC352DBB2CC
:1001800000F5000000F045BB400000F1807000EB7E
:10019000C350A0F1807040EAD170490009E04908DD
:1001A00041EAC071A0EBC35000F50000400800EB2D
:1001B000C350F0BC00F024BB6142012202EB4101BC
:1001C000001BF6E7F0BC704781F00041AAE780F021
:1001D0000040A7E780EA010210B502F000434000AA
:1001E00022D04A001FD0010E01EB1261C0F356006D
:1001F000C2F3560240F4000042F40002A0FB0220C9
:1002000000047F39140400D0401C50EA124001D48D
:100210004000491EC2B20C0604EBD010401C40083E
:10022000802A02D003E0002010BD20F00100002948
:1002300000DA0020184310BD30B480EA010202F059
:10024000004530F0004221F0004013D090B1C30DC2
:10025000D40DC2F31601C0F31600E41A41F40001F4
:1002600040F400027D34914201D3641C00E0490057
:10027000002C02DA30BC002070474FF4000000234D
:10028000914201D3891A034340084FEA4101F7D153
:1002900051B1914202D14FF0004105E002D24FF03E
:1002A000010101E06FF0010103EBC450284430BCB0
:1002B00000F0A6BA2DE9FE4F804681EA0300C00F88
:1002C0000C46009021F0004123F00045B8EB0200FD
:1002D000A94105D24046214690461C460B4602469F
:1002E00023F00040104347D0270DC7F30A00C3F3A3
:1002F0000A510290401A019040286BDAC3F31300B0
:1003000040F4801B0098924620B10023D2EB030AF0
:1003100063EB0B0B01985946C0F14002504600F0C8
:100320003EFA06460D4650465946019A00F056FAE6
:1003300010EB08006141002487EA115284EAE77358
:100340001A4340D0009A62B3019A012A4FEA075239
:1003500015DC001B61EB02014FF0004202EA07527C
:10036000CDE90042001C41F5801132462B4600F0D9
:100370008DFA03B0BDE8F08F40462146F9E7001B37
:1003800061EB0201001C41F5801300185B4120184D
:10039000A2F5001747EB030140EAD570B6196D418D
:1003A00011E06D084FEA360645EAC0754FEA07527C
:1003B000001B61EB0201001C41F5801149084FEA66
:1003C00030000019514132462B4603B0BDE8F04FD2
:1003D00000F04DBA0098012240000023D0EB020249
:1003E00063EBE073009821464FEAE074B8EB00003D
:1003F00061EB0401E9E783F000435BE781F0004132
:1004000058E72DE9FE4F81EA030404F0004421F08F
:10041000004100944FF0000B23F0004350EA010428
:100420005ED052EA03045BD0C3F30A54C1F30A5509
:100430002C44A4F2F3340194A0FB0254C1F3130141
:1004400041F48011C3F3130343F4801301FB02440E
:1004500000FB034E840A970A44EA815447EA835713
:10046000A4FB076802958D0A05FB07854FEA932CCC
:1004700004FB0C542705029D4FEA065847EA16373D
:10048000B5EB08056EEB070C870E920E47EA811755
:1004900042EA8312A7FB0201B6EB0B0164EB0004F6
:1004A0002B0D43EA0C335E1844EB1C50DA465146E0
:1004B000E7FB0201C5F313044FEA0B3343EA14537D
:1004C0004FEA0432019C43EA0603A4F10C040294AF
:1004D000009CCDE900B400F0D9F903B0BDE8F08F7D
:1004E00000200146F9E72DE9F04D81EA030404F00C
:1004F000004B21F0004514464FF0000A23F0004164
:1005000050EA050220D054EA01021DD0C5F30A5773
:100510000246C5F31303C1F31300C1F30A5640F4B6
:10052000801543F48013A7EB0608101BD64608F28B
:10053000FD3873EB050002D308F1010801E09218C1
:100540005B41B8F1000F03DA00200146BDE8F08DF1
:1005500000204FF48011064684460EE0171B73EB13
:10056000050705D3121B63EB050306434CEA010C98
:1005700049084FEA300092185B4150EA0107EDD17B
:1005800052EA030012D082EA040083EA050108431C
:1005900005D0101BAB4106D20122002306E0002249
:1005A0004FF0004302E06FF0010253101AEB060017
:1005B0004CEB085110EB0A0041EB0B01BDE8F04D8C
:1005C00000F055B9C10F80EAE0700844CA079623CD
:1005D000002100F01EB90EB5C10F80EAE07008449A
:1005E000CA07002140F233438DE80E000A460B464D
:1005F00000F04CF903B000BD00F0004220F00040D4
:10060000C10DC0F3160040F400007F2901DA00207C
:100610007047962903DCC1F19601C84001E0963984
:100620008840002AF4D04042704720F00040C10DBD
:10063000C0F3160040F400007F2901DA0020704763
:10064000962903DCC1F19601C8407047963988406D
:100650007047C1F30A5210B5C1F3130140F2FF33E2
:1006600041F480119A4201DA002010BD40F2334378
:100670009A42A2F2334203DC524200F09FF810BDCE
:10068000904010BD00F0004230F000400AD0C10D93
:1006900001F56071C0F3160042EA0151C20840073B
:1006A00011437047002001467047000030B5041E1A
:1006B00071F1000404DB4FF00044404264EB01019F
:1006C000141E73F1000405DB1C464FF00043524238
:1006D00063EB04038B4208BF824230BD01F000434C
:1006E00030B421F0004150EA010206D00A0DA2F513
:1006F0006072C1F31301002A02DC30BC0020704795
:10070000440F44EAC104C100E01830BC00EBC25001
:1007100000F076B8002801DBC0F10040002901DBC1
:10072000C1F1004181427047002801DBC0F1004067
:10073000002901DBC1F10041884270472DE9F05FDB
:100740000546002092469B46884606468146402440
:100750001BE0284641464746224600F02FF8534604
:100760005A46C01A914110D311461846224600F04D
:1007700016F82D1A67EB01084F462246012000218A
:1007800000F00DF817EB00094E41201EA4F1010402
:10079000DFDC484631462A464346BDE8F09F202A22
:1007A00004DB203A00FA02F1002070479140C2F1C8
:1007B000200320FA03F3194390407047202A04DBFA
:1007C000203A21FA02F00021704721FA02F3D040CA
:1007D000C2F120029140084319467047202A06DBE7
:1007E000CB17203A41FA02F043EAE07306E041FAFF
:1007F00002F3D040C2F120029140084319467047ED
:100800000029A8BF7047401C490008BF20F0010024
:10081000704710B4B0FA80FC00FA0CF050EA010402
:1008200004BF10BC704749B1CCF1200421FA04F494
:1008300011FA0CF118BF012121430843A3EB0C016D
:10084000CB1D4FEA00614FEA102042BF002010BCD0
:10085000704700EBC35010440029A4BF10BC704780
:10086000401C490008BF20F0010010BC704710B5C3
:10087000141E73F1000408DA401C41F100019218C3
:100880005B411A4301D120F0010010BD2DE9F04D6C
:1008900092469B4611B1B1FA81F202E0B0FA80F2C1
:1008A00020329046FFF77BFF04460F4640EA0A00DD
:1008B00041EA0B0153465A46084313D0114653EA06
:1008C000010019D0C8F140025046FFF777FF0546F6
:1008D0000E46504659464246FFF761FF084305D091
:1008E000012004E020463946BDE8F08D0020054394
:1008F00046EAE0762C4337430A986305E40AA0EB06
:1009000008000022FD0A44EA47540A3002D50020BC
:100910000146E9E7010510196941DDE908450019BB
:100920006941BDE8F04DA2E770B521F000430343F3
:100930000CD0C1F30A550024D5EB040564EB040385
:10094000D617AD1AB34102DB0020014670BD201856
:1009500041EB025170BD2DE9F04D00231A461B1AE0
:100960008A4103DB00200146BDE8F08DC1F30A5245
:10097000C1F3130141F480154FF0000BD10702D1F0
:1009800000186D41521E0027044640F2FF11384600
:1009900001EB620A3E468046024600204FF4801179
:1009A000FFF70CFFC2197141BB1846EB0100B4EB15
:1009B000030C75EB000C04D3E41A65EB0005174635
:1009C0000E46241908F101006D4180463428E3DD0C
:1009D000F91946EB0600091BA84103D24FF0FF327C
:1009E000134601E0002213461BEB070046EB0A51B9
:1009F000BDE8F04DFFF73BBF064C074D06E0E06851
:100A000040F0010394E8070098471034AC42F6D355
:100A1000FFF770FBA8C30008C8C300080EB540F27A
:100A2000334102910021CDE900110A460B46FFF740
:100A30002DFF03B000BD70B5C1F30A5201F00045AF
:100A40000024C1F3130140F2FF3341F480119A42B4
:100A500001DA002070BD40F233439A42A2F23342E1
:100A600003DC5242FFF7AAFE00E090402C43F1D095
:100A7000404270BD70B58C1810F8015B15F007038B
:100A800001D110F8013B2A1106D110F8012B03E027
:100A900010F8016B01F8016B5B1EF9D12B0705D42F
:100AA0000023521E0DD401F8013BFAE710F8013B78
:100AB000CB1A921C03E013F8015B01F8015B521E94
:100AC000F9D5A142D8D3002070BD00BFFEE70000D9
:100AD00010B53D48007801286CD13C49086AFFF701
:100AE000A4FD84B22146012006F0D0FB37490868F6
:100AF000FFF79BFD84B22146022006F0C7FB334975
:100B00000869FFF792FD84B22146032006F0BEFB80
:100B10002E49486AFFF789FD84B22146042006F079
:100B2000B5FB2A494868FFF780FD84B221460520BD
:100B300006F0ACFB25494869FFF777FD84B22146F2
:100B4000062006F0A3FB2149886AFFF76EFD84B2F8
:100B50002146072006F09AFB1C498868FFF765FDCF
:100B600084B22146082006F091FB18498869FFF7F6
:100B70005CFD84B22146092006F088FB1349C86A4F
:100B8000FFF753FD84B221460A2006F07FFB0F4990
:100B9000C868FFF74AFD84B221460B2006F076FBB9
:100BA0000A49C869FFF741FD84B221460C2006F0CE
:100BB0006DFB07E002F030FA02F04AF800F002FBA9
:100BC00006F034FD10BD0000D00A00204C0A0020C1
:100BD0002DE9FF411E46BDF800006421484300B2E4
:100BE0000090BDF80400484300B20190BDF8080031
:100BF000484300B202900024AA222146641C2D48DA
:100C00004254FF222146641C425403222146641CA4
:100C1000425400222146641C42549DF80020214683
:100C2000641C42549DF801202146641C42549DF8E6
:100C300004202146641C42549DF805202046611C76
:100C4000CCB21C490A549DF808202046611CCCB245
:100C500018490A549DF809202046611CCCB2154958
:100C60000A542046611CCCB212490E54201FC87091
:100C700000250027002007E00E49095C2944CDB279
:100C80007919CFB2411CC8B20A49C978091D8142FD
:100C9000F2DC2046611CCCB206490D542046611C92
:100CA000CCB204490F542146024803F0BBF9BDE819
:100CB000FF8100008C020020704710B5044603E05D
:100CC0004FF47A7000F005F8201EA4F10104F7D16A
:100CD00010BD30B5044600F055FA054600BF00F0DF
:100CE00051FA401BA042FAD330BD000010B506F007
:100CF000EBFD0120034908704FF47A70FFF7DDFF28
:100D000010BD00007E0100202DE9F04F8DB046217E
:100D1000682000F07BFE83464521682000F076FEC7
:100D20000BEB00200990FFF74DFC0C90442168204C
:100D300000F06CFE83464321682000F067FE0BEB59
:100D400000200990FFF73EFC0B904821682000F03E
:100D50005DFE83464721682000F058FE0BEB002023
:100D60000990FFF72FFC0A9095490C98FFF7DCFCDF
:100D70000FD24FF08E410C98FFF7CCFC03D14FF00F
:100D800047400C9005E04FF08F410C98FFF71CFA9C
:100D90000C908B490B98FFF7C7FC0FD24FF08E4198
:100DA0000B98FFF7B7FC03D14FF047400B9005E0DD
:100DB0004FF08F410B98FFF707FA0B9080490A9884
:100DC000FFF7B2FC0FD24FF08E410A98FFF7A2FC5A
:100DD00003D14FF047400A9005E04FF08F410A9849
:100DE000FFF7F2F90A900C98FFF74CFC4FF06632CF
:100DF000744BCDE90601FFF776FBCDE90801FFF75B
:100E00006DFC06460B98FFF73DFC4FF066326D4BCC
:100E1000CDE90601FFF767FBCDE90801FFF75EFCAE
:100E200007464021682000F0F1FD83463F216820FD
:100E300000F0ECFD0BEB00200990FFF7C3FB8146AF
:100E40003C21682000F0E2FD83463B21682000F051
:100E5000DDFD0BEB00200990FFF7B4FB80463E213F
:100E6000682000F0D3FD83463D21682000F0CEFDD0
:100E70000BEB00200990FFF7A5FB82465049504636
:100E8000FFF752FC0ED24FF08E415046FFF742FC66
:100E900002D14FF0474A05E04FF08F415046FFF72F
:100EA00093F9824646494046FFF73EFC0ED24FF08A
:100EB0008E414046FFF72EFC02D14FF0474805E037
:100EC0004FF08F414046FFF77FF980463C49484646
:100ED000FFF72AFC0ED24FF08E414846FFF71AFC6E
:100EE00002D14FF0474905E04FF08F414846FFF7E8
:100EF0006BF981464846FFF7C5FBCDE90201404644
:100F0000FFF7C0FBCDE90001DDE9022304F01AF888
:100F100000222D4BCDE90401FFF773FA2B4A2C4B2D
:100F2000CDE90601FFF7DFFACDE90801FFF7D6FBAF
:100F300004464846FFF7A6FBCDE902015046FFF7FD
:100F4000A1FBCDE90001DDE9022303F0FBFF002254
:100F50001D4BCDE90401FFF754FA1C4A1C4BCDE9A7
:100F60000601FFF7C0FACDE90801FFF7B7FB054618
:100F700086F0004B5946204600F0D2FA80F000403F
:100F80000990FFF739FB00B212490880394628461C
:100F900000F084F980F0004B5846FFF72DFB00B2BB
:100FA0000D490880012300220A48B0F900100A48C0
:100FB000B0F90000FFF70CFE0DB0BDE8F08F0000A7
:100FC00000FEFF466666304000806640F1D4C8539C
:100FD000FB2109402A000020280000202DE9F041D3
:100FE000024600250026002000230024002791F857
:100FF00003C00CF00F0591F803C00CF0100CBCF10D
:10100000000F03D091F802C04CEA050591F800C02A
:10101000BCF1000F31D0146800202BE04FF0010C20
:101020000CFA00F3B1F800C00CEA03069E4220D18E
:1010300083004FF00F0C0CFA03F7BC4305FA03FCD6
:101040004CEA040491F803C0BCF1280F06D14FF01C
:10105000010C0CFA00FCC2F814C00AE091F803C0BD
:10106000BCF1480F05D14FF0010C0CFA00FCC2F89E
:1010700010C0401C0828D1D31460B1F800C0BCF1E6
:10108000FF0F34DD546800202EE000F1080C4FF013
:10109000010808FA0CF3B1F800C00CEA03069E42FE
:1010A00021D183004FF00F0C0CFA03F7BC4305FA73
:1010B00003FC4CEA040491F803C0BCF1280F05D1ED
:1010C00000F1080C08FA0CF8C2F8148091F803C07B
:1010D000BCF1480F07D100F1080C4FF0010808FAE5
:1010E0000CF8C2F81080401C0828CED35460BDE82C
:1010F000F0810000F0B50A460023002400210025FD
:1011000000F00046B6F1004F02D11D4EF16901E03A
:101110001B4E7168C0F3034583B200F44016B6F568
:10112000401F08D121F07061154E766826F0706678
:10113000134F7E6012E000F48016B6F5801F06D1D2
:10114000032606FA05F4A14341F0706106E0460D5E
:10115000360103FA06F6B14341F0706122B1460D43
:10116000360103FA06F6314300F00046B6F1004FAF
:1011700002D1034EF16101E0014E7160F0BD00004B
:101180000000014000BF0E4A11684FF0E022526992
:101190004FF0E0239B69D21A4FF47A735A434FF011
:1011A000E0235B69B2FBF3F201EB4103C3EBC11334
:1011B00002EBC300024A12689142E4D1704700007A
:1011C0003401002010B5314A1168314A1068FEF729
:1011D000A9FF304908602D4A11692D4A1069FEF7B0
:1011E000A1FF2C490861294A116A294A106AFEF7B1
:1011F00099FF28490862254A5168254A5068FEF738
:1012000091FF24494860214A5169214A5069FEF7FB
:1012100089FF204948611D4A516A1D4A506AFEF7FC
:1012200081FF1C494862194A9168194A9068FEF783
:1012300079FF18498860154A9169154A9069FEF747
:1012400071FF14498861114A916A114A906AFEF748
:1012500069FF104988620D4AD1680D4AD068FEF7CF
:1012600061FF0C49C860094AD169094AD069FEF793
:1012700059FF0849C861054AD16A054AD06AFEF794
:1012800051FF0449C86203F01DFF10BD5C09002036
:101290008C090020BC09002000BFFEE72DE9F041C9
:1012A00005460C468C4801682046FEF78DFF074630
:1012B0008A4801683846FEF78DFF0646884801686F
:1012C0003046FEF72FFF8649086086484168864809
:1012D0000068FEF779FF0646824881683046FEF7CF
:1012E00073FF824908607F48C06880F00040486012
:1012F0007C48C06880F0004088607D480068C86015
:10130000086876490968FEF765FF06467548016872
:101310003046FEF707FF73490860744948686F4913
:101320000968FEF757FF06466E4841683046FEF7EB
:10133000F9FE6C4948606D49886868490968FEF79C
:1013400049FF0646674881683046FEF7EBFE65496F
:1013500088606649C86861490968FEF73BFF064630
:101360006048C1683046FEF7DDFE5E49C8605C48F3
:1013700001682846FEF728FF5E4908605E4890F93C
:101380000000FFF71FF90646564801683046FEF791
:1013900021FF5A490860584890F90000FFF712F9F8
:1013A0000646504881683046FEF714FF54490860ED
:1013B000514890F90000FFF705F907464F480168CA
:1013C0003846FEF707FF06464E4801683046FEF7EE
:1013D000A9FE4D4908600846016848480068FEF7C4
:1013E0002BFF4A4908604848016845480068FEF7F5
:1013F00023FF4749086041480068464908603E4865
:1014000090F90000FFF7DEF806463648416830469E
:10141000FEF7E0FE404908603E4801683B4800682E
:10142000FEF7D8FE06462F4801683046FEF7CFFE8D
:101430002C4908603848016834480068FEF7CAFE45
:101440000646284841683046FEF7C1FE25494860F7
:10145000304801682E480068FEF7BCFE0646214869
:1014600081683046FEF7B3FE1E4988602A4801684D
:1014700027480068FEF7AEFE06461A48C1683046A7
:10148000FEF7A5FE1749C8601A4801681F480068A2
:10149000FEF7A0FE0646124801683046FEF742FEFF
:1014A0000F4908601348016819480068FEF792FE6A
:1014B0000646094801683046FEF734FE06490860D2
:1014C000084601682046FEF77FFE1449086004487C
:1014D0000068BDE8F08100004C00002044000020BE
:1014E000300000207000002038000020F0020020B2
:1014F0003C00002050000020480000205400002044
:1015000058000020400000205C0000206000002007
:1015100064000020680000206C00002034000020DF
:101520002DE9F04105460C468C4801682046FEF73F
:101530004BFE07468A4801683846FEF74BFE0646D2
:10154000884801683046FEF7EDFD86490860864808
:10155000416886480068FEF737FE06468248816883
:101560003046FEF731FE824908607F48C06880F04F
:10157000004048607C48C06880F0004088607D483A
:101580000068C860086876490968FEF723FE0646C9
:10159000754801683046FEF7C5FD73490860744917
:1015A00048686F490968FEF715FE06466E484168AF
:1015B0003046FEF7B7FD6C4948606D498868684958
:1015C0000968FEF707FE0646674881683046FEF761
:1015D000A9FD654988606649C86861490968FEF7E0
:1015E000F9FD06466048C1683046FEF79BFD5E493E
:1015F000C8605C4801682846FEF7E6FD5E49086061
:101600005E4890F90000FEF7DDFF06465648016887
:101610003046FEF7DFFD5A490860584890F900004F
:10162000FEF7D0FF0646504881683046FEF7D2FDEF
:1016300054490860514890F90000FEF7C3FF07467F
:101640004F4801683846FEF7C5FD06464E4801681A
:101650003046FEF767FD4D49086008460168484876
:101660000068FEF7E9FD4A490860484801684548B6
:101670000068FEF7E1FD47490860414800684649B7
:1016800008603E4890F90000FEF79CFF0646364889
:1016900041683046FEF79EFD404908603E480168BB
:1016A0003B480068FEF796FD06462F480168304625
:1016B000FEF78DFD2C490860384801683448006801
:1016C000FEF788FD0646284841683046FEF77FFD54
:1016D00025494860304801682E480068FEF77AFDC9
:1016E0000646214881683046FEF771FD1E49886034
:1016F0002A48016827480068FEF76CFD06461A482C
:10170000C1683046FEF763FD1749C8601A48016892
:101710001F480068FEF75EFD064612480168304625
:10172000FEF700FD0F49086013480168194800687A
:10173000FEF750FD0646094801683046FEF7F2FC08
:1017400006490860084601682046FEF73DFD144939
:10175000086004480068BDE8F0810000A000002097
:101760009800002084000020C40000208C0000208D
:101770000003002090000020A40000209C00002016
:10178000A8000020AC00002094000020B000002041
:10179000B4000020B8000020BC000020C0000020E1
:1017A0008800002008B501210D2001F0E5FA012193
:1017B0000F48FFF79FFC4FF41040ADF800001020D9
:1017C0008DF8030003208DF8020069460948FFF7F1
:1017D00005FC4FF4A040ADF8000010208DF8030088
:1017E00003208DF8020069460348FFF7F7FB08BDA8
:1017F0000002300000080140000C014010B50E4806
:1018000040680D490860FFF7BDFC0B4948600B4973
:10181000C8600948406808490968401A0649886054
:10182000FFF7B0FC0549086108460069C968401A1D
:101830000249486110BD00003C0B0020480B00200D
:1018400010B5FFF79FFC06490860FFF79BFC0449B1
:101850004860084640680968401A0149886010BD20
:10186000480B0020704710B5FFF74EFA10BD7047C7
:1018700010B505F079FC02A002F05AFC10BD000082
:1018800062686A6A680A000010B5FFF721F910BDA6
:10189000704710B50446234600223821682000F026
:1018A00073FA10BD10B56420FFF707FA00F0FAF8DC
:1018B00000F084F8012000F01FF8002000F058F834
:1018C000022000F025F8002000F05BF80020FFF770
:1018D000E0FF002000F069F8032000F02DF8002060
:1018E00000F020F8022000F056F8002000F037F851
:1018F000012000F02BF810BD10B504462346072246
:101900006B21682000F040FA6420FFF7D6F910BD83
:1019100038B50446032302226B216820009400F0AE
:1019200053FA38BD38B50446022304221C2168202E
:10193000009400F049FA38BD38B504460223042269
:101940001B216820009400F03FFA38BD10B5044612
:10195000234601223721682000F016FA10BD10B589
:101960000446234605226A21682000F00DFA10BDC6
:1019700010B50446234606226B21682000F004FAC5
:1019800010BD38B50446062305226C21682000945A
:1019900000F01AFA38BD38B50446032302221A2192
:1019A0006820009400F010FA38BD10B504462246B5
:1019B0001921682000F03DFA10BD000010B507E0C5
:1019C000094B01227521682000F0A9F9601CC4B2FE
:1019D00005480078682801D00A2CF1DB0A2C02DBCC
:1019E00002A002F0A5FB10BD20030020436F756C20
:1019F00064206E6F7420636F6E6E65637420746F05
:101A0000204D505536303530200A0D0070B5054652
:101A10000E46002400F0ECF86906080E00F0B6F857
:101A2000641C00F03DF9304600F0B0F8641C00F092
:101A300037F900F0DDF8012101EB4501C8B200F0F3
:101A4000A5F8641C00F02CF9002000F067F80446AB
:101A500000F002F9204670BD10B500200E49086064
:101A60000E48006820F470200C49086008460068A1
:101A700040F44030086000200949C1F8900101207D
:101A8000FFF727F9012004490860FFF722F9002039
:101A90000349C1F8940110BD94012142000801409E
:101AA000000021420848806940F00400064988612E
:101AB0000648006820F47F00044908600846006872
:101AC00040F44C10086070470010024000080140CC
:101AD00010B500200E4908600E48006820F4702000
:101AE0000C4908600846006840F440300860012056
:101AF0000949C1F89001FFF7ECF80120044908609A
:101B0000FFF7E7F800200449C1F8940110BD000078
:101B100094012142000801400000214270B50546B1
:101B200000241748006820F4702015490860084612
:101B3000006840F400200860002616E000201149EB
:101B400008600220FFF7C5F801200F49C1F8940191
:101B50006006040E0B488438006808B1601CC4B2EB
:101B60000220FFF7B6F8701CC6B2082EE6DB15B1EE
:101B7000FFF772FF01E0FFF7ABFF204670BD0000EA
:101B800000080140940121420000214270B5044642
:101B90001448006820F47020124908600846006864
:101BA00040F44030086000200F490860002516E02E
:101BB000E0090D49091F08606006040E0120FFF7C7
:101BC00088F801200949C1F89401FFF782F8002044
:101BD000054908600120FFF77CF8681CC5B2082D94
:101BE000E6DB70BD00080140940121420000214263
:101BF00010B51648006820F47020144908600846A3
:101C0000006840F440300860012011490860114824
:101C1000D0F8100108B9002010BD01200C49091DA1
:101C20000860FFF756F800200A49C1F890010848FB
:101C30008038006808B10020EEE70120FFF749F87E
:101C400000200349091D08600120E5E70008014064
:101C5000900121420000214210B50E48006820F496
:101C600070200C4908600846006840F44030086065
:101C70000020094908600949C1F890010120FFF7D7
:101C800028F80120044908600449C1F89001FFF7D1
:101C900020F810BD000801409401214200002142BB
:101CA00010B500241548006820F47020134908601E
:101CB0000846006840F400200860012010490860D0
:101CC000FFF707F801200F49C1F89401FFF701F869
:101CD0000AE0601CC4B2322C03DDFFF7BDFF002018
:101CE00010BD0120FEF7F5FF054880380068002888
:101CF000EFD10349091D08600120F1E70008014008
:101D0000900121420000214270B505460E4614465E
:101D100031462846FFF77AFE2070012070BD2DE97C
:101D2000F0410546884616461F460024FFF760FF2F
:101D30006906080EFFF72AFFFFF7B2FF4046FFF7DC
:101D400025FFFFF7ADFFFFF753FF012101EB450131
:101D5000C8B2FFF71BFFFFF7A3FF00BF0DE0701E27
:101D6000A04204D00120FFF7D9FE385503E000203F
:101D7000FFF7D4FE3855601CC4B2B442EFDBFFF766
:101D80006BFF2046BDE8F081F8B506460F461446C5
:101D90001D466A4639463046FFF7B6FF2DB1012091
:101DA000A0409DF80010084305E00120A0409DF8E8
:101DB000001021EA0000C0B200909DF800203946D2
:101DC000304600F036F8F8BD2DE9F843074688465E
:101DD00014461D46089E6A4641463846FFF794FF62
:101DE00028B3601CFF2101FA00F0C4F10801294466
:101DF000491EFF220A41104300F0FF09C5F1080007
:101E000006FA00F0C6B2C4F1070006419DF80000D2
:101E100000EA090000909DF80000304300909DF812
:101E200000204146384600F004F8BDE8F883002061
:101E3000FBE737B504460D4602AB01222946204692
:101E400000F001F83EBD2DE9F04105460E4617466B
:101E500098460024FFF7CCFE6906080EFFF796FEB1
:101E6000FFF71EFF3046FFF791FEFFF719FF00BF97
:101E700007E018F80400FFF789FEFFF711FF601C68
:101E8000C4B2BC42F5DBFFF7E7FE0120BDE8F081FC
:101E900000BFFEE77047000070B5002100230F224D
:101EA000C47804B3154C246804F4E064C4F5E06419
:101EB000210AC1F10403CA40447804FA03F184788A
:101EC0001440214309010E4C0678A155047804F012
:101ED0001F050124AC4005786D11AD0005F1E0252A
:101EE000C5F8004109E0047804F01F050124AC4066
:101EF000044D0678761145F8264070BD0CED00E0E3
:101F000000E400E080E100E002490143024A116080
:101F1000704700000000FA050CED00E070B50024E9
:101F20000CE0002506E00020074901EBC50108553B
:101F3000681CC5B2802DF6DB601CC4B2082CF0DB37
:101F400000F0A2F870BD00002E030020F0B514468A
:101F500000267F2801DC3F2900DDF0BD0B46CF17AE
:101F600001EB5777FF10C7F10707FAB2CF1701EB64
:101F70005777FF10A1EBC707FDB2C5F10707012393
:101F8000BB40DEB24CB10A4B03EBC0039B5C334356
:101F9000074F07EBC007BB5408E0054B03EBC0033A
:101FA0009B5CB343024F07EBC007BB5400BFD4E7B1
:101FB0002E03002010B500F08DF80021AE2000F0B7
:101FC00073F90021D52000F06FF90021502000F0B6
:101FD0006BF90021A82000F067F900213F2000F0F4
:101FE00063F90021D32000F05FF90021084600F0DA
:101FF0005BF90021402000F057F900218D2000F00E
:1020000053F90021142000F04FF90021202000F0A6
:102010004BF90021022000F047F90021A12000F037
:1020200043F90021C02000F03FF90021DA2000F040
:102030003BF90021122000F037F90021812000F047
:1020400033F90021EF2000F02FF90021D92000F012
:102050002BF90021F12000F027F90021DB2000F00E
:1020600023F90021302000F01FF90021A42000F006
:102070001BF90021A62000F017F90021AF2000F085
:1020800013F9FFF74BFF10BD70B500241CE004F1FD
:10209000B001C8B2002100F007F90021084600F0A5
:1020A00003F90021102000F0FFF8002508E008499E
:1020B00001EBC501085D012100F0F6F8681CC5B20E
:1020C000802DF4DB601CC4B2082CE0DB70BD000086
:1020D0002E03002008B50121092000F04DFE01214A
:1020E0000D48FFF707F84AF21800ADF8000010207D
:1020F0008DF8030002208DF8020069460748FEF7BC
:102100006DFF0020064908606420FEF7D6FD01201F
:102110000449C1F8900108BD00023000000C0140E4
:1021200090812142008021422DE9F04F80460C46EB
:1021300015461E46A346A5F12000C5B200273EE085
:102140000C2E07D105EB45001F4901EB800010F86C
:10215000079004E01D4800EB051010F807904FF0C1
:10216000000A26E009F0800028B121464046099A7D
:10217000FFF7ECFE09E0099808B9012000E0002013
:10218000024621464046FFF7E1FE4FEA49604FEA2A
:102190001069601CC4B2A4EB0B00B04205D15C46D0
:1021A00008F1010000F0FF0806E00AF1010000F06C
:1021B000FF0ABAF1080FD5DB00BF781CC7B2B742DF
:1021C000BEDBBDE8F08F000034B70008A8BB0008F4
:1021D0002DE9FF4F81B0074691461E460E9D4FF0F8
:1021E000000A002439E0301B401EC1B20A2004F06E
:1021F000AFFFB9FBF0F00A21B0FBF1F201FB1208CE
:10220000BAF1000F16D1701EA04213DDB8F1000F15
:102210000ED10120AB4605EBDB71491001FB0471C7
:102220000090C8B22B4620220299FFF77DFF12E0F2
:102230004FF0010A0120AB4605EBDB71491001FBB1
:1022400004710090C8B208F13001CAB22B4602995D
:10225000FFF76AFF00BF601CC4B2B442C3DB05B025
:10226000BDE8F08FF8B505460E46144618E07A2D05
:1022700003DD002506F11000C6B23A2E04DD002071
:1022800005460646FFF74AFE0120009022781023FB
:1022900031462846FFF748FF05F10800C5B2641C27
:1022A00020780028E3D1F8BD10B50A461AB1012301
:1022B000124C236002E00023104C2360002117E041
:1022C00000230E4C2834236000F0800323B1012347
:1022D0000A4C3034236003E00023084C3034236080
:1022E0000123064C283423604306180E4B1CD9B238
:1022F0000829E5DB0123014C236010BD8C812142BC
:1023000070B5044600253E483E49097844543D488E
:10231000007858B9AA2C05D13A480078401C3949B0
:1023200008706CE000203749087068E03548007894
:10233000012805D133480078401C324908705EE01E
:102340003048007802280BD1052C05D12D480078A3
:10235000401C2C49087052E000202A4908704EE0C9
:102360002848007803280DD1412C01D0422C05D1FA
:1023700024480078401C2349087040E0002021498F
:1023800008703CE01F48007804280ED11E480470F5
:102390000078142805DA1B480078401C1949087099
:1023A0002DE000201749087029E0164801781648EA
:1023B0000078401D81421DD1002005E01049095CD4
:1023C0002944CDB2411CC8B20F490978491D884241
:1023D000F4DBA5420AD10C480078801DC1B2084840
:1023E00000F01EF800200749087008E000200549A9
:1023F000087004E003480078401C0249087070BD72
:102400002E07002031010020300100200020024969
:102410000880024908707047280100204207002008
:1024200070B504460D46E078412819D160792D49F0
:102430000871A1792B484171207AE17940EA0120A5
:1024400001B22848C180A07A617A40EA012001B235
:1024500024480181E17A81720120224988703DE09F
:10246000E07842283AD160791E490873E079A17971
:1024700040EA012001B21B48C181607A217A40EA1A
:10248000012001B217480182A17A8174207BE17A90
:1024900040EA012001B213488182A07B617B40EABF
:1024A000012001B20F48C182E17B017602200D4973
:1024B00088700D480088401C0B4908800948C08975
:1024C0000A490988084400B2084908800548008A7A
:1024D00007490988084400B205490880FFF796FFBC
:1024E00070BD0000420700202E0100202A010020BC
:1024F0002C01002000B585B0FE48806A0490FD489C
:10250000006903900499FEF70FF908D80020F949F3
:102510000861F9480078401CF7490870C4E2F548A2
:1025200040680490F348006903900499FDF7FAFDB0
:10253000F04908610846C0680190FEF7A3F8002240
:10254000EE4BCDE90201FEF7B1F87DD1EC48B0F9D0
:102550000E0010F11E0F02DC6FF01D0009E0E848CC
:10256000B0F90E001E2801DD1E2002E0E448B0F99B
:102570000E00E349C8810846B0F9100010F1320F8F
:1025800002DC6FF0310009E0DD48B0F910003228BC
:1025900001DD322002E0DA48B0F91000D8490882A3
:1025A000D848B0F90000FEF70DF80390D64801684E
:1025B0000398FDF70FFED5490490FDF708FECD49BD
:1025C000C863D048B0F90000FDF7FCFF0390CE4887
:1025D00001680398FDF7FEFDCD490490FDF7F7FD76
:1025E000C449C862C748B0F90000FDF7EBFF03908B
:1025F000C54801680398FDF7EDFDC6490490FDF755
:10260000E6FDBC490864BF48B0F90000FDF7DAFFF9
:102610000390BD4801680398FDF7DCFDBE490490B6
:10262000FDF7D5FDB3490863B648B0F90000FDF7E2
:10263000C9FF0390B94801680398FDF7CBFDB8497D
:102640000490FDF7C4FD00E0D2E0AA494864AD481B
:10265000B0F90000FDF7B6FF0390B0480168039899
:10266000FDF7B8FDAF490490FDF7B1FDA1494863FE
:10267000A448B0F90000FDF7A5FF0390A748016842
:102680000398FDF7A7FDA6490490FDF7A0FD994921
:1026900088649C48B0F90000FDF794FF03909F48C0
:1026A00001680398FDF796FD9E490490FDF78FFDA4
:1026B000904988639248B0F910000190FDF782FFBD
:1026C0000290994801680298FDF784FD04908C48B7
:1026D000B0F90E000190FDF775FF02909348016874
:1026E0000298FDF777FD03900499FDF76DFD814990
:1026F000C8650846C06D80F00040C8648048B0F9E5
:1027000010000190FDF75EFF029087480168029873
:10271000FDF760FD04907A48B0F90E000190FDF7D6
:1027200051FF0290814801680298FDF753FD039024
:102730000499FDF749FD6F4908660846006E80F070
:1027400000416C4801656E48B0F910000190FDF73A
:1027500039FF0290744801680298FDF73BFD049030
:102760006748B0F90E000090FDF72CFF02906F480B
:10277000006880F0004001900299FDF72BFD039066
:102780000499FDF721FD5B4948660846406E80F0DC
:102790000041584841655A48B0F910000190FDF7D2
:1027A00011FF0290604801680298FDF713FD049044
:1027B0005348B0F90E000090FDF704FF02905B480B
:1027C000006880F0004001900299FDF703FD03903E
:1027D0000499FDF7F9FC474988660846806E80F049
:1027E0000041444881650069049005F097F85BE179
:1027F0004048C0680190FDF745FF00224C4BCDE9F1
:102800000201FDF753FFF2D13D48B0F90E000290EE
:10281000FDF7D8FE0390454801680398FDF7DAFC00
:1028200000210490FDF7D3FC3249C8633448B0F965
:102830000E000290FDF7C6FE03903C480168039825
:10284000FDF7C8FC3B490490FDF76CFC2949C862C0
:102850002B48B0F90E000290FDF7B4FE0390334808
:1028600001680398FDF7B6FC00210490FDF75AFCBF
:10287000204908642248B0F90E000290FDF7A2FE3C
:1028800003902A4801680398FDF7A4FC29490490A5
:10289000FDF79DFC174908631948B0F90E00029036
:1028A000FDF790FE0390214801680398FDF792FC24
:1028B00000210490FDF736FC0E4948641048B0F939
:1028C0000E000290FDF77EFE039018480168039801
:1028D000FDF780FC17490490FDF779FC0549486332
:1028E0000748B0F90E000290FDF76CFE03900F4808
:1028F000016821E0D00A00207F0100200000E03FB5
:10290000420700202800002068010020000020422B
:10291000000020410000A041000020C16C01002007
:102920000000A0C1000048C2740100207001002016
:102930000000D03F0000F0C10398FDF74BFC5B495D
:102940000490FDF744FC5A4988645A48B0F90E00D7
:102950000290FDF737FE0390574801680398FDF792
:1029600039FC56490490FDF7DDFB51498863514815
:10297000B0F910000190FDF725FE02905048016863
:102980000298FDF727FC04904A48B0F90E00019028
:10299000FDF718FE0290484801680298FDF71AFCFE
:1029A00003900499FDF710FC4149C8650846C06DC5
:1029B00080F00040C8643F48B0F910000190FDF776
:1029C00001FE02903E4801680298FDF703FC049066
:1029D0003848B0F90E000190FDF7F4FD029036483A
:1029E00001680298FDF7F6FB03900499FDF7ECFBF4
:1029F0002F4908660846006E80F000412C480165AA
:102A00002C48B0F910000190FDF7DCFD02902C4835
:102A100001680298FDF7DEFB04902648B0F90E002D
:102A20000090FDF7CFFD02902348006880F0004041
:102A300001900299FDF7CEFB03900499FDF7C4FBCA
:102A40001B4948660846406E80F0004118484165C1
:102A50001848B0F910000190FDF7B4FD0290184835
:102A600001680298FDF7B6FB04901248B0F90E0019
:102A70000090FDF7A7FD02900F48006880F000402D
:102A800001900299FDF7A6FB03900499FDF79CFBCA
:102A9000074988660846806E80F0004104488165D9
:102AA0000069049007F026F805B000BD0000A0C141
:102AB000D00A00204207002070010020000048C218
:102AC000740100202DE9FC4106460C4621462046B3
:102AD000FDF72AFE25D2214659480068FDF774FB10
:102AE00080460021FDF720FE05D2214654480068AB
:102AF000FDF76AFB06E0214651480068FDF764FBDC
:102B000080F0004007464F4801683846FDF762FBF9
:102B100005464B4801682846FDF759FB48490860BF
:102B20002AE0214646480068FDF7F4FD24D22146FC
:102B300043480068FDF748FB80460021FDF7F4FD9F
:102B400005D221463E480068FDF73EFB06E02146DF
:102B50003B480068FDF738FB80F0004007463948E5
:102B600001683846FDF736FB0546354801682846BA
:102B7000FDF7D8FA32490860334801683046FDF75E
:102B8000C9FD25D2304801683046FDF720FB80465C
:102B90000021FDF7C9FD05D22B4801683046FDF73D
:102BA00016FB06E0284801683046FDF710FB80F070
:102BB00000400746254801683846FDF70BFB0546EF
:102BC000214801682846FDF702FB1F4908602AE0FA
:102BD0001D4801683046FDF7A7FD24D21A48016858
:102BE0003046FDF7F4FA80460021FDF79DFD05D241
:102BF000154801683046FDF7EAFA06E01248016818
:102C00003046FDF7E4FA80F0004007460F480168BF
:102C10003846FDF7DFFA05460B4801682846FDF700
:102C200081FA09490860002000900346024601909D
:102C3000034801680448006802F0DAFFBDE8FC813F
:102C400008020020640100200C0200206001002026
:102C50002DE9FC412E48B0F900002E49097849427F
:102C6000884203DC2B48007840420CE02848B0F949
:102C7000000028490978884202DD2648007802E0F1
:102C80002348B0F90000244908802448B0F9000026
:102C9000234909784942884203DC214800784042B0
:102CA0000CE01E48B0F900001D490978884202DD99
:102CB0001B48007802E01948B0F900001949088063
:102CC0000846B0F90000FDF77DFC0646164801688D
:102CD0003046FDF77FFA04460F48B0F90000FDF7D3
:102CE00071FC0746114801683846FDF773FA06463D
:102CF0000F49FDF769FA0546002000900346024699
:102D000021460190284602F073FFBDE8FC810000D7
:102D1000280000207D010020180200202A00002049
:102D20007C0100201A0200206401002060010020C4
:102D30000000A0407047000029B1064AD269024352
:102D4000044BDA6104E0034AD2698243014BDA6141
:102D5000704700000010024029B1064A1269024380
:102D6000044B1A6104E0034A12698243014B1A6161
:102D7000704700000010024029B1064A92690243E0
:102D8000044B9A6104E0034A92698243014B9A61C1
:102D9000704700000010024029B1064AD268024381
:102DA000044BDA6004E0034AD2688243014BDA60E4
:102DB000704700000010024030B5002100220024BE
:102DC00000232D4D6D6805F00C0121B1042905D0BB
:102DD000082923D105E0294D056022E0274D056033
:102DE0001FE0254D6D6805F47012234D6D6805F4E4
:102DF0008034022505EB92421CB9214D55430560F4
:102E00000BE01D4D6D6805F400351DB11C4D55439B
:102E1000056002E0194D5543056002E0174D05605D
:102E200000BF00BF144D6D6805F0F0010909154D94
:102E30006B5C0568DD4045600F4D6D6805F4E06131
:102E4000090A104D6B5C4568DD4085600A4D6D6870
:102E500005F46051C90A0B4D6B5C4568DD40C560E7
:102E6000054D6D6805F44041890B074D6B5CC568E5
:102E7000B5FBF3F5056130BD0010024000127A0089
:102E800000093D00140000202400002070470000CD
:102E900070B5002400BF1EE000F0BCF9054604EB4D
:102EA00044000E4901EB80008068281A04EB4401BD
:102EB0000A4A02EB8101C98888420AD304EB440024
:102EC000114601EB8000856004EB440152F82100BB
:102ED0008047601CC4B2082CDED370BD24020020E1
:102EE000002000BF1FE000EB4001104A02EB81010F
:102EF00089884FF47A7292FBF1F100EB40020B4BA0
:102F000003EB8202D18000EB40011A4602EB810103
:102F1000C988012905DA012100EB400203EB820296
:102F2000D180411CC8B20828DDD37047240200209C
:102F300010B500F001F810BD0CB500200190009014
:102F40003348006840F480303149086000BF3048A1
:102F5000006800F4003000900198401C0190009837
:102F600018B90198B0F5A06FF1D12948006800F4B4
:102F7000003010B10120009001E000200090009886
:102F8000012843D12348006840F01000214908601F
:102F90000846006820F0030008600846006840F01A
:102FA000020008601A4840681949486008464068AD
:102FB00048600846406840F48060486008464068C1
:102FC00020F47C1048600846406840F4E8104860EF
:102FD0000846006840F08070086000BF0C48006838
:102FE00000F000700028F9D00948406820F0030084
:102FF000074948600846406840F00200486000BF4A
:103000000348406800F00C000828F9D10CBD00000E
:10301000001002400020024010B5504800780128FE
:103020004DD14F48007B022802D0032842D120E036
:103030000CE03220FDF74DFE4948007B022800D00D
:1030400008E048480078401E464908704548007826
:103050000028EEDC00BF4348007848B9012042490F
:1030600008700020414908703C49087040490870C8
:1030700024E00CE03220FDF72CFE3948007B0328C9
:1030800000D008E037480078401E364908703548BF
:1030900000780028EEDC00BF3248007848B90120F3
:1030A000344908700020344908702C4908703049B0
:1030B000087003E001202949087000BF00BF2748BD
:1030C000007801280BD0294800782C4909788842DB
:1030D00005DC2948007829490978884209DDFFF78D
:1030E00009FA0020204908702249087001201B4974
:1030F00008701D480078012800D100E000201B491D
:1031000009781E4A1278914201DC012100E0002179
:10311000084040B116480078042802DAFFF7EAF9BF
:1031200001E000F041FD13480078012800D100E0E3
:10313000002011490978114A1278914201DC0121DD
:1031400000E00021084040B109480078042802DA74
:10315000FFF7D0F901E000F087FD10BD7E010020EF
:10316000420700208401002080010020810100200E
:103170007F010020820100208301002085010020C2
:10318000042808D14FF0E021096941F004014FF013
:10319000E022116107E04FF0E021096921F004010C
:1031A0004FF0E0221161704770B5174800684FF486
:1031B0007A71B0FBF1F4E4082146B1F1807F00D3CD
:1031C0001DE021F07F40401E4FF0E022506150177B
:1031D0000022002807DA13071E0E0C4B00F00F0523
:1031E0002D1F5E5503E013071D0E094B1D5400BF34
:1031F00000204FF0E02290610720106100BF6FF0C7
:103200000400FFF7BDFF70BD0000002018ED00E0D6
:1032100000E400E001480068704700003801002029
:1032200000B504480068401C0249086004F06EFBC9
:1032300000BD00003401002010B51348006840F0C4
:1032400001001149086008464068104908400E49CD
:103250004860084600680E4908400B490860084667
:10326000006820F4802008600846406820F4FE00D2
:1032700048604FF41F008860FFF75AFE4FF000606F
:103280000449086010BD0000001002400000FFF873
:10329000FFFFF6FE08ED00E010B50121034800F045
:1032A00099FA0321014800F082F910BD002C014079
:1032B00030B589B005460C4601210846FFF73CFDB4
:1032C00001210420FFF758FD0F20ADF82000182041
:1032D0008DF8230003208DF8220008A92648FDF769
:1032E0007DFEADF81850ADF814400020ADF81A007E
:1032F000ADF8160005A94FF0804000F003FC7020E7
:10330000ADF804000120ADF806000020ADF80A0079
:103310000220ADF80C0001A9400700F08FFA01A9C6
:103320004FF0804000F0E0FA01A94FF0804000F03B
:103330003BFB01A94FF0804000F090FB0121880782
:1033400000F044F90821C80600F0C4FA0821C806B4
:1033500000F01CFB0821C80600F076FB0821C80617
:1033600000F0BAFB0121880700F0E2F8012188078C
:1033700000F020F909B030BD0008014030B589B037
:1033800005460C4601210220FFF7D6FC01210C2046
:10339000FFF7F2FCC020ADF8200018208DF82300C4
:1033A00003208DF8220008A92B48FDF717FE032003
:1033B000ADF8200018208DF8230003208DF822009E
:1033C00008A92648FDF70AFEADF81850ADF81440DC
:1033D0000020ADF81A00ADF8160005A9204800F04D
:1033E00091FB7020ADF804000120ADF8060000202C
:1033F000ADF80A000220ADF80C0001A9184800F051
:103400001DFA01A9164800F06FFA01A9144800F04E
:10341000CBFA01A9124800F021FB0121104800F06D
:10342000D5F808210E4800F055FA08210C4800F0A4
:10343000ADFA08210A4800F007FB0821084800F00F
:103440004BFB0121064800F073F80121044800F00D
:10345000B1F809B030BD000000080140000C014087
:103460000004004030B589B005460C460121042017
:10347000FFF762FC01210820FFF77EFC4FF470701B
:10348000ADF8200018208DF8230003208DF82200CD
:1034900008A92548FDF7A2FDADF81850ADF8144075
:1034A0000020ADF81A00ADF8160005A91F4800F07D
:1034B00029FB7020ADF804000120ADF806000020C3
:1034C000ADF80A000220ADF80C0001A9174800F081
:1034D000B5F901A9154800F007FA01A9134800F051
:1034E00063FA01A9114800F0B9FA01210F4800F070
:1034F0006DF808210D4800F0EDF908210B4800F0A7
:1035000045FA0821094800F09FFA0821074800F011
:10351000E3FA0121054800F00BF80121034800F00F
:1035200049F809B030BD0000000C0140000800401F
:1035300021B1028842F08002028004E002884FF646
:103540007F731A40028070470EB50121C802FFF751
:1035500013FC144800F04AF846F2A710ADF8040036
:103560004720ADF800000020ADF80600ADF80200DD
:103570008DF8080069460B4800F0C4FA012109489B
:1035800000F012F801221146064800F03EF9012130
:10359000044800F00FF800214FF40060FFF7ECFB47
:1035A0000EBD0000002C0140CA4302827047CA438E
:1035B0000282704721B1028842F00102028004E0D9
:1035C00002884FF6FE731A400280704731B1B0F89E
:1035D000442042F40042A0F8442005E0B0F8442022
:1035E000C2F30E02A0F844207047000010B5044654
:1035F0006848844208D10121C014FFF7CDFB0021A7
:10360000E014FFF7C9FBC4E0B4F1804F08D10121F9
:103610000846FFF7A1FB00210120FFF79DFBB8E062
:103620005D48844208D101210220FFF795FB00216B
:103630000220FFF791FBACE05848844208D10121F9
:103640000420FFF789FB00210420FFF785FBA0E0A1
:103650005348844208D101210820FFF77DFB002157
:103660000820FFF779FB94E04E48844208D10121FD
:103670001020FFF771FB00211020FFF76DFB88E0A1
:103680004948844208D101212020FFF765FB002131
:103690002020FFF761FB7CE04448844208D10121EF
:1036A0004014FFF779FB00216014FFF775FB70E011
:1036B0003F48844209D10121C804FFF76DFB002176
:1036C0004FF40020FFF768FB63E03A48844209D1D9
:1036D00001210805FFF760FB00214FF48010FFF780
:1036E0005BFB56E03448844209D101214805FFF7CD
:1036F00053FB00214FF40010FFF74EFB49E02F4829
:10370000844208D101214020FFF726FB0021402000
:10371000FFF722FB3DE02A48844208D101218020A6
:10372000FFF71AFB00218020FFF716FB31E0254848
:10373000844208D101218015FFF70EFB0021A0155E
:10374000FFF70AFB25E02048844209D10121080443
:10375000FFF722FB00214FF48030FFF71DFB18E03C
:103760001A48844209D101214804FFF715FB0021C2
:103770004FF40030FFF710FB0BE01548844208D1EE
:1037800001218804FFF708FB00214FF48020FFF798
:1037900003FB10BD002C0140000400400008004065
:1037A000000C0040001000400014004000340140B4
:1037B000004C0140005001400054014000180040FE
:1037C000001C004000200040004001400044014037
:1037D0000048014030B50246002000230024158A2D
:1037E00005EA0103958905EA010413B10CB1012032
:1037F00000E0002030BD10B5FFF7A6FE00F00EF887
:103800000121C802FFF7B8FA10BD1AB183890B4332
:10381000838102E083898B438381704708B5192037
:103820008DF8000002208DF801008DF802000120C3
:103830008DF803006846FEF72FFB08BD70B5002425
:1038400000220023058C4FF6FE7635400584028C5D
:103850008388048B4FF68F752C40B51E2C400D8845
:103860002C43751E2A400D892A434D882A43144D46
:10387000A8420BD0134DA84208D0134DA84205D042
:10388000124DA84202D0124DA84213D14FF6F7753F
:103890002A404D892A434FF6FB752A408D882A43DA
:1038A0004FF6FF652B404FF6FF552B408D892B437C
:1038B000CD892B4383800483CD888586028470BDA7
:1038C000002C014000340140004001400044014010
:1038D000004801400A460021018B4FF6F77319405A
:1038E000114301837047000070B5002400220023BB
:1038F000058C4FF6EF7635400584028C8388048B67
:1039000048F6FF752C404FF6FF452C400D884FF6CA
:10391000FF7606EA05252C434FF6DF752A400D8910
:1039200006EA05152A434D8806EA05152A43154D72
:10393000A84202D0144DA8421DD14FF67F752A40EF
:103940004D894FF6FF7606EA05152A434FF6BF75F7
:103950002A408D8806EA05152A434FF6FF352B408D
:103960004FF2FF752B408D8906EA85052B43CD89E3
:1039700006EA85052B4383800483CD88058702846E
:1039800070BD0000002C0140003401400A460021B7
:10399000018B4FF2FF7319404FF6FF7303EA0223C6
:1039A000194301837047000070B5002400220023F2
:1039B000058C4FF6FF6635400584028C8388848B26
:1039C0004FF68F752C404FF6FC752C400D882C431C
:1039D0004FF6FF552A400D894FF6FF7606EA05257A
:1039E0002A434D8806EA05252A43154DA84202D0F0
:1039F000144DA8421DD14FF2FF752A404D894FF654
:103A0000FF7606EA05252A434FF6FF352A408D88C2
:103A100006EA05252A434EF6FF752B404DF6FF7545
:103A20002B408D8906EA05152B43CD8906EA05153D
:103A30002B4383808483CD888587028470BD0000FA
:103A4000002C0140003401400A460021818B4FF6D2
:103A5000F7731940114381837047000070B500224D
:103A600000230024058C4EF6FF7635400584038C38
:103A70008488828B48F6FF752A404FF6FF452A401E
:103A80000D884FF6FF7606EA05252A434DF6FF75A9
:103A90002B400D8906EA05352B434D8806EA05358E
:103AA0002B430B4DA84202D00A4DA84208D14BF639
:103AB000FF752C408D894FF6FF7606EA85152C435D
:103AC00084808283CD88A0F84050038470BD0000BC
:103AD000002C0140003401400A460021818B4FF246
:103AE000FF7319404FF6FF7303EA022319438183E2
:103AF0007047818670470187704781877047A0F8BB
:103B000040107047002202881D4B98420ED01D4B7A
:103B100098420BD0B0F1804F08D01B4B984205D093
:103B20001A4B984202D01A4B984204D14FF68F7329
:103B30001A404B881A43174B984207D0164B9842AD
:103B400004D04FF6FF431A40CB881A4302808B887B
:103B500083850B8803850A4B98420BD0094B98420A
:103B600008D00E4B984205D00D4B984202D00D4B19
:103B7000984201D10B7A03860123838270470000AB
:103B8000002C0140003401400004004000080040C7
:103B9000000C0040001000400014004000400140B4
:103BA000004401400048014070B5284A916A1069FC
:103BB000FCF7BAFD08D826480078401C2449087054
:103BC0000020224908613FE0204A91681069FCF713
:103BD000A9FA1E490861C868FCF754FD0446002292
:103BE0001C4BFCF763FD15D11B481849C8651B48E1
:103BF000C8641949154801661849016541661649A6
:103C0000416516498166144981650146086905F0D8
:103C1000DDF919E00D49C868FCF734FD04460022BF
:103C20000F4BFCF743FD0FD10E480849C865C86427
:103C30000146064801660165416641658166816508
:103C40000146086906F062FE70BD0000D00A00203F
:103C5000810100200000E03F00002041000020C161
:103C60000000D03F0000704170B5284A916A106989
:103C7000FCF75AFD08D826480078401C24490870F3
:103C80000020224908613FE0204A91681069FCF752
:103C900049FA1E490861C868FCF7F4FC0446002292
:103CA0001C4BFCF703FD15D11B481849C8651B4880
:103CB000C8641949154801661849016541661649E5
:103CC000416516498166144981650146086905F018
:103CD0007DF919E00D49C868FCF7D4FC04460022C0
:103CE0000F4BFCF7E3FC0FD10E480849C865C864C8
:103CF0000146064801660165416641658166816548
:103D00000146086906F002FE70BD0000D00A0020DE
:103D1000830100200000E03F000020C1000020419E
:103D20000000D03F0000704110B54FF458711B489F
:103D300000F0B2F810B1194800F06AF9174800888D
:103D400000F08000F0B115480C30008800F08000D1
:103D5000C0B1134801780078401C114A1070114816
:103D6000405C0E49091D0880104600780E4909780C
:103D7000884207D109480C30008820F080000749AC
:103D80000C3108800548008800F0200020B103486D
:103D9000001D00880549087010BD00000038014072
:103DA0003D0100205C0700203E0100203C01002076
:103DB00010B54FF458711F4800F06EF810B11D484F
:103DC00000F026F91B48008800F4C070F0B11948D3
:103DD0000C30008800F08000C0B1174801780078EE
:103DE000401C154A10701548405C1249091D088096
:103DF0001046007812490978884207D10D480C30E6
:103E0000008820F080000B490C31088009480088A8
:103E100000F0200068B140F22551064800F014F887
:103E20000448001D00880749087008460078FEF71E
:103E300067FA10BD00480040400100205C080020E7
:103E4000410100203F01002010B50022002340F670
:103E50006A14A14200D100BF0A1201249440A3B207
:103E6000DC43048010BD21B1828942F4005282817A
:103E700004E082894DF6FF731A4082817047024642
:103E80000020B1F5007F00D100BF13880B400BB1BB
:103E9000012000E00020704770B502460024002396
:103EA0000025002040F66A16B14200D100BFC1F3E0
:103EB000421501F01F03012606FA03F3012D02D17A
:103EC0009689334006E0022D02D1168A334001E084
:103ED000968A33400C12012606FA04F41688344000
:103EE00013B10CB1012000E0002070BDF0B5034615
:103EF000002400260025002040F66A17B94200D1B0
:103F000000BF1846C1F3421401F01F06012707FA4B
:103F100006F5012C01D10C3004E0022C01D1103047
:103F200000E014301AB107682F43076002E0076809
:103F3000AF430760F0BD00002DE9F04786B00546AD
:103F40000E460024A24600BFA1460027B08900B15A
:103F500000BF2F462C8A4CF6FF700440F0880443C3
:103F60002C82AC894EF6F3100440B08831890843A6
:103F7000718908430443AC81AC8A4FF6FF4004408A
:103F8000B0890443AC8201A8FEF716FF1F488742A0
:103F900002D1DDF810A001E0DDF80CA0A88900F442
:103FA000004040B10AEBCA0000EB0A10316849003A
:103FB000B0FBF1F807E00AEBCA0000EB0A10316829
:103FC0008900B0FBF1F86420B8FBF0F0040120098F
:103FD000642101FB1089A88900F4004040B132201F
:103FE00000EBC900B0FBF1F000F00700044308E06B
:103FF000322000EB09106421B0FBF1F000F00F005B
:1040000004432C8106B0BDE8F08700000038014071
:1040100001468888C0F308007047C1F30802828017
:104020007047000070B504460D4600200AE0225C8F
:104030000C490B780978491C0A4E31700A49CA5458
:10404000411CC8B2A842F2DB0848008800F080009A
:1040500030B9012240F2277104480C38FFF746FFBF
:1040600070BD00003E0100205C0700200C380140BC
:1040700000BFFEE710B586B0044601218804FEF7B4
:104080005BFE01210820FEF777FE01212548FDF7A0
:1040900031F84FF48060ADF8140018208DF8170047
:1040A00003208DF8160005A91F48FCF797FF4FF471
:1040B0000060ADF8140004208DF8170005A91A4817
:1040C000FCF78CFF01940020ADF80800ADF80A0061
:1040D000ADF80C00ADF810000C20ADF80E0001A9F1
:1040E0001248FFF729FF012240F225510F48FFF740
:1040F000FDFE01210D48FFF7B6FE4FF4A060FDF76D
:1041000003FF27208DF8000001208DF80100022018
:104110008DF8020001208DF803006846FDF7BCFE13
:1041200006B010BD10001400000C01400048004013
:104130000FB4054B10B503A9044A029800F054FBD4
:1041400010BC5DF814FB0000E17000088402002040
:10415000490050EAC12018BF04204A0D18BF40F0A2
:10416000010040F2FF72B2EB515F08BF40F0020065
:10417000012808BF052070472DE9F74F144694B079
:104180000021C4E902111599079121F00045C949A0
:104190008D4206DC1599C4E9000117B00020BDE886
:1041A000F08FC549DFF814A3A9423CDD0799C44E3E
:1041B0000029C44FC44A1599534619DDFCF71BF971
:1041C000554506D0C14AC24BFCF715F9C4E90001B8
:1041D0000AE04FF0D352BE4BFCF70DF932463B4696
:1041E000FCF709F9C4E9000117B00120BDE8F08F20
:1041F000FCF760F8554506D0B44AB54BFCF75AF8C1
:10420000C4E900010AE04FF0D352B14BFCF752F879
:1042100032463B46FCF74EF8C4E9000117B04FF0B8
:10422000FF30BDE8F08FAB49A942159978DB21F04A
:10423000004183468846A84AA84BFCF7E2F80022D2
:10424000A74BFCF737F8FCF7F6FB0990FCF7C3F92E
:1042500006460F469C4A5346FCF7D3F843465A4657
:10426000FCF7CCF880468A46984A994B3046394646
:10427000FCF7C7F82A0D01250B9242465346FCF77E
:10428000BDF8032DC4E9000139D00B98C1F30A51E0
:10429000401A05EB45111139814230DA9148C34685
:1042A000784400EB0510CDF80CA00C90D0E9002369
:1042B00030463946FCF7A5F802460B4604910690B5
:1042C00058460399FCF797F880468A4602460B4603
:1042D00058460399FCF78FF8049B069AFCF78BF875
:1042E00083460C9803913946D0E902233046FCF707
:1042F00088F85A46039BFCF77EF86D1CBDE70798CB
:104300000028A2BF099817B0BDE8F08F616881F05E
:1043100000416160099817B04042BDE8F08FFFE7A7
:1043200084461598C1F31301C0F30A50A0F2F5308A
:104330004FEA601800F01F06C6F12000139000201D
:104340000690079041F4801E05206D4676B1664ABE
:1043500008EB00017A4452F8213002EB8101B340AE
:104360004A68139922FA01F1194305E05F4908EB05
:104370000002794451F82210A1FB0E27A1FB0C1377
:104380001A449A4234BF0123002303EB070A05EBCA
:104390008003D3E901B70F448F4234BF01210021CC
:1043A00093448B4411B1934502D903E0934501D264
:1043B000012100E00021C3E901B7514445F8201074
:1043C000011EA0F10100C1DC0298059F00F1005020
:1043D000800F12900298DDE903568000FCF7FBF88D
:1043E000834628460D91FCF719FB6FF01D02FCF780
:1043F0009BFACDE90E013046FCF710FB6FF03D0251
:10440000FCF792FA80468A463846FCF707FB6FF0C5
:104410005D02FCF789FA0746424653461191FBF7C5
:1044200049FFDDE90E23FBF745FF5A460D9BFBF7DD
:1044300041FF00250E465A4628460D9BFBF7DBFF41
:10444000DDE90E23FBF7D7FF42465346FBF7D3FFC8
:104450003A46119BFBF7D2FFDFF898A0244A534657
:10446000FBF7CFFF07468846234A244B31462846B0
:10447000FBF7C7FF3A464346FBF71CFF0746884653
:104480004FF0A842534631462846FBF7BAFF3A465A
:104490004346FBF70FFF159A12F0004F04D0129A13
:1044A00081F0004152421292C4E90001129817B003
:1044B000BDE8F08FFB21E93F7CD90240FB21F93FA9
:1044C0007370032E8A19A33B000040543163621AB3
:1044D00061B4D03DFB21394183C8C96D305FE43FF1
:1044E0000000E03F14800000907F0000727F000019
:1044F000182D4454FB21F93D3326A611460B113CDF
:104500002DE9FF4D21F0004807460C46B8F1795FD0
:1045100008DAFCF790FA002801BF0020324904B005
:10452000BDE8F08D3A46234610461946FBF769FF71
:10453000054602462D480E460B460621784400F0FB
:104540005DF82A463346FBF75CFFDDE9022382462D
:104550008B4638462146FBF754FF04460F46524629
:104560005B4628463146FBF74CFF22463B46FBF7AD
:1045700042FF07468A464FF0FF3228463146FCF795
:10458000D3F91B4A90450ADA3A465346FBF733FF04
:1045900004B00022BDE8F04D134BFBF72FBF154AC6
:1045A0004245A8BFA8F500154FF00004B8BF124D52
:1045B00022462B46FBF71FFF0646884622462B461F
:1045C00000200949FBF717FF04460D463A465346BB
:1045D00030464146FBF70FFF04B022462B46BDE8AC
:1045E000F04DFBF70BBF00000000F03F407D0000E6
:1045F0003333D33F0000E93F0000D23F2DE9F041C3
:104600004F1E00EBC7010446D1E9000115461E46C6
:1046100037F006020DD02A463346FBF7F2FE7F1E26
:1046200004EBC703D3E90023FBF744FE37F006028F
:10463000F1D1022F25D0042F13D0062F18BFBDE8CB
:10464000F0812A463346FBF7DCFED4E90A23FBF768
:1046500031FE2A463346FBF7D4FED4E90823FBF7A4
:1046600029FE2A463346FBF7CCFED4E90623FBF7A6
:1046700021FE2A463346FBF7C4FED4E90423FBF7A8
:1046800019FE2A463346FBF7BCFED4E90223FBF7AA
:1046900011FE2A463346FBF7B4FED4E90023BDE8F9
:1046A000F041FBF707BE00002DE9FF4D054621F064
:1046B000004084B00C46B0F1795F0BDA2846FFF772
:1046C00047FD042808BF00F071F8284608B02146CD
:1046D000BDE8F08D2A460B461046FBF792FE0646D3
:1046E0000F462A462346FBF78CFE804626488A461C
:1046F00032463B4605217844FFF780FF83461098F9
:10470000029160B3214A224B40465146FBF779FEA5
:10471000CDE900015A4640465146029BFBF771FE27
:1047200082468846DDE906014FF0FF32FCF7FCF8CF
:1047300052464346FBF75FFE32463B46FBF761FEBF
:10474000DDE90623FBF757FEDDE90023FBF753FE07
:1047500008B02A462346BDE8F04DFBF74FBE0B4696
:104760005A4630463946FBF74CFE084A084BFBF7E1
:10477000A1FD42465346FBF744FE08B02A462346B5
:10478000BDE8F04DFBF796BD867C000049555555B8
:104790005555C5BF0122FCF7C7B8FBF78BBD0022FA
:1047A000134610461146FBF79EBE0000024A002049
:1047B0001107FCF7B9B8000001FDFFFF02E008C8CF
:1047C000121F08C1002AFAD170477047002001E08B
:1047D00001C1121F002AFBD1704700000149086087
:1047E00070470000880200202DE9FF4F8DB09B46E6
:1047F0000F460446002606E025280BD05A460F999E
:104800009047641C761C20780028F5D111B0304602
:10481000BDE8F08F0025A8460122984900E0054335
:1048200014F8013F203B02FA03F00842F7D1207848
:104830002E2817D114F8010F45F004052A280ED0B0
:104840006FF02F022078A0F1300109290AD808EB77
:10485000880102EB410100EB0108641CF2E757F804
:10486000048B641C20786C280DD004DC4C2812D0FA
:104870006A2811D104E074280DD07A280CD10AE0FE
:1048800045F4001507E0617845F48015814202D1B6
:10489000641C05F58015641C2278692A45D008DC63
:1048A000002AB3D0582A69D0632A10D0642A08D1CC
:1048B0003BE0702A67D0732A13D0752A5CD0782A1F
:1048C0005CD010465A460F999047761CD3E017F8F3
:1048D000040B8DF8000000208DF80100E94601204E
:1048E00003E057F8049B4FF0FF3069074FF00005D5
:1048F00001D40AE06D1C45450DDA8542FADB19F852
:1049000005100029F6D106E06D1C8542FCDB19F884
:1049100005100029F8D12E4404E019F8010B5A467D
:104920000F9990476D1EF8D2A5E00A200021CDE92D
:104930000801C5F3025002280DD001CFC117031E94
:1049400071F100030DDA4FF0000CD0EB0C006CEBB2
:1049500001012D2308E0FF1D27F00707F7E80201FA
:10496000EDE72B0504D52B238DF8283001233BE000
:10497000EB0739D02023F7E70A2000E010200021C0
:10498000CDE9080107E01020002145F00405CDE93C
:1049900008014FF00808C5F3025002280FD001CFDC
:1049A00000214FF0000A2B071FD5702A0DD0DDE93A
:1049B00008C38CF0100C5CEA030C0CD015E0FF1D52
:1049C00027F00707F7E80201EBE740228DF82820DF
:1049D0004FF0010A0BE050EA010306D030238DF8B6
:1049E00028308DF8292002239A46582A04D024A280
:1049F0000DF120090B9209E026A2F9E7DDE9082371
:104A0000FBF79CFE0B9B9B5C09F8013D50EA010201
:104A1000F4D1ADEB090020300890680701D44FF0C5
:104A200001080899884502DDA8EB010000E000209C
:104A30008046002506E00AA85A46405D0F99904737
:104A40006D1C761C5545F6DB04E030205A460F9964
:104A50009047761CB8F10001A8F10108F5DC05E0EB
:104A600019F8010B5A460F999047761C0899481E71
:104A700008900029F4DC641CC5E600000928010048
:104A800030313233343536373839616263646566C4
:104A90000000000030313233343536373839414286
:104AA00043444546000000002DE9F04D0546DFF87F
:104AB000388221F000408D4F82B00C46404520DB0B
:104AC000A0EB080129430BD08949884201DC10D1B1
:104AD0007DB102B028462146BDE8F04DFFF75ABE31
:104AE000002CC7BF002001468248394602B0BDE80D
:104AF000F08D0120FFF772FE02B0BDE8F04DFFF728
:104B00004EBE7D49884244DA7C498142A1BF794842
:104B10007B4902B0BDE8F08D2A462346104619466F
:104B2000FBF76FFC8346024676480E460B4606218D
:104B30007844FFF763FD5A463346FBF762FC0746AD
:104B400071488A465A46334604217844FFF756FD99
:104B50005A463346FBF755FC00224346FBF7AAFBB7
:104B600002460B4638465146FBF7BDFC2A46234613
:104B7000FBF747FC654A664BFBF740FC2A46234699
:104B8000FBF73CFC02B05B4ABDE8F04D5C4BFBF729
:104B900035BC002C4FF000024BDA4646434628460F
:104BA0002146FBF787FB4FF0FF32FBF7BDFE0446C3
:104BB000024658480D460B4606217844FFF71EFD75
:104BC00022462B46FBF71DFC804653488A46224668
:104BD0002B4604217844FFF711FD22462B46FBF7B4
:104BE00010FC00223346FBF765FB06468B46204649
:104BF000294602F043FE04460D4632465B464046D7
:104C00005146FBF770FC22462B46FBF7FAFB3F4A66
:104C10003F4BFBF7F0FB22462B46FBF74BFB0122F9
:104C2000FBF782FE02B03B46BDE8F04D314AFBF790
:104C3000E5BB2D4B28462146FBF7E0FB4FF0FF324A
:104C4000FBF772FE05460E4602F018FE00270C46E2
:104C500080463A460B46FBF72DFB82468B463A468A
:104C6000234610461946FBF7CCFB2A463346FBF792
:104C7000C5FB52465B46FBF736FC824627488B460F
:104C80002A46334606217844FFF7B8FC2A463346C5
:104C9000FBF7B7FBCDE9000121482A463346042142
:104CA0007844FFF7ABFC2A463346FBF7AAFB002209
:104CB0000D4BFBF7FFFA02460B46DDE90001FBF75F
:104CC00012FC42462346FBF79CFB52465B46FBF731
:104CD000F1FA3A462346FBF7EDFA02B00122BDE8AD
:104CE000F04DFBF721BE00000000F03FFB21094022
:104CF0000000F07F182D44540000E03F0000603CAD
:104D0000FB21F93F647600007A760000075C1433DB
:104D100026A6913CDA750000F07500000E750000C3
:104D2000247500002DE9F84F04460D4621F000409F
:104D300000917349814211DC7249884201DC06D13D
:104D40002CB120462946BDE8F84FFFF723BD6E4839
:104D5000002DCCBF6D496E49BDE8F88F6D49814289
:104D600011DD6D498142D8BF4FF0FF366DDD204621
:104D70002946FFF7EDF9042808BFFFF717FD204685
:104D80002946BDE8F88F6549654F25F00045814209
:104D900033DD6449814219DD002632464FF08043FD
:104DA00020462946FBF786FA80468A46012220469D
:104DB0002946FBF7B9FD00223B46FBF71CFB4246A8
:104DC0005346FBF790FB04460D463EE001260022C9
:104DD000BA463B4620462946FBF76CFA80460F460A
:104DE0000022534620462946FBF705FB42463B4638
:104DF000FBF779FB04460D4627E04B4981421BDD5A
:104E0000DFF828A102260022534620462946FBF758
:104E1000F8FA00223B46FBF74DFA80460F46002287
:104E2000534620462946FBF7E6FA42463B46FBF747
:104E30005AFB04460D4608E0032622462B46002076
:104E40003B49FBF750FB04460D4622462B461046D5
:104E50001946FBF7D6FA8B46824602460B46FBF70D
:104E6000D0FA07460246334888460B460621784466
:104E7000FFF7C4FB52465B46FBF7C3FA82462E4857
:104E80008B463A46434605217844FFF7B7FB3A463E
:104E90004346FBF7B6FA02460B46002E50465946EB
:104EA0000CDAFBF707FA22462B46FBF7AAFA01B009
:104EB00022462B46BDE8F04FFBF7A0BAFBF7FAF904
:104EC00022462B46FBF79DFA1C4A7A4402EBC603A6
:104ED000D3E90023FBF78FFA22462B46FBF78BFA28
:104EE000174A7A4402EBC603D3E90023FBF786FA9C
:104EF000009A002AB8BF81F00041BDE8F88F000099
:104F0000000010440000F07F182D4454FB21F93FAD
:104F1000FB21F9BF0000DC3F0000203E0000F33F12
:104F20000000F03F0000E63F008003400000F83F33
:104F30000000F0BFDE7300009C7300003A730000B5
:104F4000027300002DE9F04D9446CCF1000423F0EB
:104F500000464CEA0404524F46EAD4749A46884606
:104F600021F00042BC4206D8454240EA050442EA2C
:104F7000D474BC4204D9BDE8F04D6246FFF70DBCC5
:104F8000AAF14055A5F17F6555EA0C040BD0022427
:104F900004EAAA74434DDFF810E144EAD87452EAF7
:104FA000000B04D00CE0BDE8F04DFFF7BBBE002CB9
:104FB00014BF012CBDE8F08D022C30D0032C32D070
:104FC00056EA0C0B0AD0BE4220D1BA4209D126F0D3
:104FD000804622F080423346114617E000291ADB52
:104FE00025E0DFF8C8B0FB44002C04BFDBE900017A
:104FF000BDE8F08D012C02BFDBE9000181F000412A
:10500000BDE8F08D022C0AD0032C0CD0BA4212D18C
:10501000B8F1000F0BDA23482549BDE8F08D28468A
:105020002449BDE8F08D28467146BDE8F08D1D4845
:105030002149BDE8F08D921B12153C2AC4BF1948C6
:105040001D490EDCBAF1000FBEBF12F13C0F00206B
:10505000014606DB6246FBF746FA21F00041FFF706
:1050600061FE002C08BFBDE8F08D012C04BF81F06B
:105070000041BDE8F08D114A114B022C07D0FBF71F
:10508000BAF92A46BDE8F04D0A4BFBF7B4B9FBF775
:10509000B2F92A46BDE8F04D064BFBF7AFB9000068
:1050A0000000F07F182D4454FB2109C0C672000097
:1050B000FB21F9BFFB210940FB21F93F075C1433B9
:1050C00026A6A13C00B59FB0FE48006A0A90FD48A4
:1050D000006A09900A99FBF77DF80C90F94800697D
:1050E0000A90F848006909900A99FBF773F80B9049
:1050F0000C99FBF717F80D90FBF7C4FACDE90E01F8
:1051000002F0BCFBCDE91001FBF7E8FA1690EE487F
:1051100000690A90EC48006909900A99FBF75AF86F
:105120000C9016980A9001460990FBF753F80B90E3
:105130000C99FBF749F80D90FBF7A4FACDE90E01A5
:1051400002F09CFBCDE91001FBF7C8FA1290DD4894
:1051500000680A90DB48006809900A99FBF73AF862
:105160000C9012980A9001460990FBF733F80B90C7
:105170000C99FAF7D7FF0D90FBF784FACDE90E01F1
:1051800002F07CFBCDE91001FBF7A8FA1A90CD489C
:1051900000690890CB48006A07900899FBF74CF823
:1051A0000990FBF76FFACDE90A01FFF7BBFDCDE9E6
:1051B0000E01C54800690890129807900899FBF7FE
:1051C0003BF80990FBF75EFACDE90A01FFF7AAFD6B
:1051D000CDE90C01DDE90E23FBF76CF8CDE91001F8
:1051E000FBF77CFAB9490862B748006801460790A6
:1051F0004FF08040FAF7EEFF0890B3488068014610
:1052000007900898FAF7E6FF0A901A980690014668
:105210000590FAF7DFFF0890AB4880680490AA4831
:10522000806803900499FAF7D5FF0690A6480068B5
:105230000490A548006803900499FAF7CBFF059005
:105240000699FAF76FFF07900899FAF7BDFF0990E2
:105250000A99FAF7F1FF0B90FBF714FACDE90C016C
:10526000FFF722FC00229A4BCDE90E01FBF7C6F8AE
:10527000CDE91001FBF732FA9449086112980890C1
:105280009048006807900899FAF7D6FF0990FBF755
:10529000F9F9CDE90A01FFF745FDCDE90E018A488C
:1052A0000068014605904FF08040FAF793FF0690A2
:1052B0001A98014605900698FAF78CFF08908248E4
:1052C000806804908048806803900499FAF782FF10
:1052D00006901A98029001460190FAF77BFF04901D
:1052E0007948006802907848006801900299FAF7BE
:1052F00071FF03900499FAF715FF05900699FAF7E4
:1053000063FF07900899FAF797FF0990FBF7BAF93E
:10531000CDE90A01FFF7C8FBCDE90C01DDE90E2359
:10532000FBF769F8CDE91001FBF7D8F96749086088
:105330000846006A014610906648FAF74BFF664936
:105340001190FAF779FF6149086208460069014641
:1053500010906048FAF73EFF5F491190FAF76CFF32
:105360005A49086108460068014610905948FAF702
:1053700031FF59491190FAF75FFF544908605148CD
:10538000406A0A904F48406A09900A99FAF722FF4A
:105390000C904C4840690A904A48406909900A9923
:1053A000FAF718FF0B900C99FAF7BCFE0D90FBF77B
:1053B00069F9CDE90E0102F061FACDE91001FBF7C0
:1053C0008DF91790404800690A903F48006909909C
:1053D0000A99FAF7FFFE0C9017980A900146099077
:1053E000FAF7F8FE0B900C99FAF7EEFE0D90FBF72A
:1053F00049F9CDE90E0102F041FACDE91001FBF7C0
:105400006DF913902F4840680A902E484068099023
:105410000A99FAF7DFFE0C9013980A90014609905A
:10542000FAF7D8FE0B900C99FAF77CFE0D90FBF77B
:1054300029F9CDE90E0102F021FACDE91001FBF7BF
:105440004DF91B901F48406908901E48406A07901C
:105450000899FAF7F1FE0990FBF714F9CDE90A0172
:10546000FFF760FCCDE90E0117480069089013981A
:1054700007900899FAF7E0FE0990FBF703F9CDE9E8
:105480000A01FFF74FFCCDE90C01DDE90E23FAF725
:10549000B2FFCDE91001FBF721F90C4948620A4837
:1054A0000068014607904FF08040FAF793FE08909D
:1054B00005488068014607900898FAF78BFE0A9025
:1054C0001B980BE0BC090020AC0A00201C0A00203D
:1054D000FA21094000003443D00F494006900146AC
:1054E0000590FAF777FE0890FE4880680490FD4822
:1054F000806803900499FAF76DFE0690F9480068F9
:105500000490F848006803900499FAF763FE059048
:105510000699FAF707FE07900899FAF755FE0990E1
:105520000A99FAF789FE0B90FBF7ACF8CDE90C016C
:10553000FFF7BAFA0022EC4BCDE90E01FAF75EFF55
:10554000CDE91001FBF7CAF8E849486113980890C3
:10555000E748406807900899FAF76EFE0990FBF754
:1055600091F8CDE90A01FFF7DDFBCDE90E01DD4839
:105570000068014605904FF08040FAF72BFE069038
:105580001B98014605900698FAF724FE0890D54826
:1055900080680490D348806803900499FAF71AFE53
:1055A00006901B98029001460190FAF713FE0490B2
:1055B000CC4800680290CB48006801900299FAF745
:1055C00009FE03900499FAF7ADFD05900699FAF7E4
:1055D000FBFD07900899FAF72FFE0990FBF752F8A8
:1055E000CDE90A01FFF760FACDE90C01DDE90E23F0
:1055F000FAF701FFCDE91001FBF770F8BB494860ED
:105600000846406A01461090BA48FAF7E3FDBA49E5
:105610001190FAF711FEB549486208464069014603
:105620001090B448FAF7D6FDB3491190FAF704FE8A
:10563000AE4948610846406801461090AD48FAF707
:10564000C9FDAD491190FAF7F7FDA8494860A8488F
:10565000806A0A90A648806A09900A99FAF7BAFD0A
:105660000C90A34880690A90A148806909900A9922
:10567000FAF7B0FD0B900C99FAF754FD0D90FBF77B
:1056800001F8CDE90E0102F0F9F8CDE91001FBF7C0
:1056900025F81890934800690A909248006909908B
:1056A0000A99FAF797FD0C9018980A90014609900C
:1056B000FAF790FD0B900C99FAF786FD0D90FAF72A
:1056C000E1FFCDE90E0102F0D9F8CDE91001FBF7B9
:1056D00005F81490864880680A908548806809908B
:1056E0000A99FAF777FD0C9014980A9001460990F0
:1056F000FAF770FD0B900C99FAF714FD0D90FAF77C
:10570000C1FFCDE90E0102F0B9F8CDE91001FAF7B9
:10571000E5FF1C907648806908907548806A07907C
:105720000899FAF789FD0990FAF7ACFFCDE90A016B
:10573000FFF7F8FACDE90E016A480069089014985D
:1057400007900899FAF778FD0990FAF79BFFCDE9E1
:105750000A01FFF7E7FACDE90C01DDE90E23FAF7BC
:105760004AFECDE91001FAF7B9FF604988625D4849
:105770004068014607904FF08040FAF72BFD0890F3
:105780005848C068014607900898FAF723FD0A9028
:105790001C98069001460590FAF71CFD08905148A8
:1057A000C06804904F48C06803900499FAF712FD4E
:1057B00006904C48406804904A4840680390049919
:1057C000FAF708FD05900699FAF7ACFC07900899DE
:1057D000FAF7FAFC09900A99FAF72EFD0B90FAF7FE
:1057E00051FFCDE90C01FFF75FF900223E4BCDE9F7
:1057F0000E01FAF703FECDE91001FAF76FFF3B49FE
:105800008861149808903A48806807900899FAF7D8
:1058100013FD0990FAF736FFCDE90A01FFF782FA86
:10582000CDE90E012F484068014605904FF08040B9
:10583000FAF7D0FC06901C98014605900698FAF7F6
:10584000C9FC08902748C06804902648C0680390A7
:105850000499FAF7BFFC06901C980290014601904B
:10586000FAF7B8FC04901F48406802901D48406851
:1058700001900299FAF7AEFC03900499FAF752FCF2
:1058800005900699FAF7A0FC07900899FAF7D4FC5E
:105890000990FAF7F7FECDE90A01FFF705F9CDE91E
:1058A0000C01DDE90E23FAF7A6FDCDE91001FAF7A8
:1058B00015FF0E4988600846806A014610900D4821
:1058C000FAF788FC0C491190FAF7B6FC0749886290
:1058D00008468069014610900648FAF77BFC0649A5
:1058E00011900BE0AC0A0020FA2109401C0A0020AC
:1058F000BC09002000003443D00F4940FAF79CFC5B
:10590000B54988610846806801461090B348FAF7A7
:1059100061FCB3491190FAF78FFCAF498860B14838
:10592000C06A0A90AF48C06A09900A99FAF752FC17
:105930000C90AC48C0690A90AA48C06909900A99BD
:10594000FAF748FC0B900C99FAF7ECFB0D90FAF77C
:1059500099FECDE90E0101F091FFCDE91001FAF7B2
:10596000BDFE1990A04800690A909F4800690990FF
:105970000A99FAF72FFC0C9019980A9001460990A1
:10598000FAF728FC0B900C99FAF71EFC0D90FAF729
:1059900079FECDE90E0101F071FFCDE91001FAF7B2
:1059A0009DFE15908F48C0680A908E48C068099087
:1059B0000A99FAF70FFC0C9015980A900146099085
:1059C000FAF708FC0B900C99FAF7ACFB0D90FAF77C
:1059D00059FECDE90E0101F051FFCDE91001FAF7B2
:1059E0007DFE1D907F48C06908907E48C06A079080
:1059F0000899FAF721FC0990FAF744FECDE90A016B
:105A0000FFF790F9CDE90E017748006908901598E5
:105A100007900899FAF710FC0990FAF733FECDE9E0
:105A20000A01FFF77FF9CDE90C01DDE90E23FAF752
:105A300041FCCDE91001FAF751FE6749C8626A4896
:105A40004068014607904FF08040FAF7C3FB08908A
:105A50006548C068014607900898FAF7BBFB0A90B2
:105A60001D98069001460590FAF7B4FB08905E4831
:105A7000C06804905C48C06803900499FAF7AAFBD8
:105A8000069059484068049057484068039004992C
:105A9000FAF7A0FB05900699FAF744FB07900899DE
:105AA000FAF792FB09900A99FAF7C6FB0B90FAF7FE
:105AB000E9FDCDE90C01FEF7F7FF00224B4BCDE9E4
:105AC0000E01FAF79BFCCDE91001FAF707FE4249F7
:105AD000C861159808904348C06807900899FAF77C
